{
  "_format": "hh-sol-artifact-1",
  "contractName": "Help_together",
  "sourceName": "contracts/Help_together.sol",
  "abi": [
    {
      "inputs": [
        {
          "internalType": "string",
          "name": "title_fund",
          "type": "string"
        },
        {
          "internalType": "string",
          "name": "story_link",
          "type": "string"
        },
        {
          "internalType": "string",
          "name": "img_link",
          "type": "string"
        },
        {
          "internalType": "uint256",
          "name": "required_amount",
          "type": "uint256"
        },
        {
          "internalType": "address",
          "name": "campaignOwner",
          "type": "address"
        }
      ],
      "stateMutability": "nonpayable",
      "type": "constructor"
    },
    {
      "anonymous": false,
      "inputs": [
        {
          "indexed": true,
          "internalType": "address",
          "name": "donar",
          "type": "address"
        },
        {
          "indexed": true,
          "internalType": "uint256",
          "name": "amount",
          "type": "uint256"
        },
        {
          "indexed": true,
          "internalType": "uint256",
          "name": "timestamp",
          "type": "uint256"
        }
      ],
      "name": "fund_donated_event",
      "type": "event"
    },
    {
      "inputs": [],
      "name": "amount_required",
      "outputs": [
        {
          "internalType": "uint256",
          "name": "",
          "type": "uint256"
        }
      ],
      "stateMutability": "view",
      "type": "function"
    },
    {
      "inputs": [],
      "name": "creater",
      "outputs": [
        {
          "internalType": "address payable",
          "name": "",
          "type": "address"
        }
      ],
      "stateMutability": "view",
      "type": "function"
    },
    {
      "inputs": [],
      "name": "fund_donate",
      "outputs": [],
      "stateMutability": "payable",
      "type": "function"
    },
    {
      "inputs": [],
      "name": "fund_title",
      "outputs": [
        {
          "internalType": "string",
          "name": "",
          "type": "string"
        }
      ],
      "stateMutability": "view",
      "type": "function"
    },
    {
      "inputs": [],
      "name": "image",
      "outputs": [
        {
          "internalType": "string",
          "name": "",
          "type": "string"
        }
      ],
      "stateMutability": "view",
      "type": "function"
    },
    {
      "inputs": [],
      "name": "story",
      "outputs": [
        {
          "internalType": "string",
          "name": "",
          "type": "string"
        }
      ],
      "stateMutability": "view",
      "type": "function"
    },
    {
      "inputs": [],
      "name": "total_amount_received",
      "outputs": [
        {
          "internalType": "uint256",
          "name": "",
          "type": "uint256"
        }
      ],
      "stateMutability": "view",
      "type": "function"
    }
  ],
  "bytecode": "0x60806040523480156200001157600080fd5b5060405162000c7c38038062000c7c8339818101604052810190620000379190620003c2565b80600560006101000a81548173ffffffffffffffffffffffffffffffffffffffff021916908373ffffffffffffffffffffffffffffffffffffffff160217905550846000908051906020019062000090929190620000d5565b508360019080519060200190620000a9929190620000d5565b508260029080519060200190620000c2929190620000d5565b508160038190555050505050506200050c565b828054620000e390620004d6565b90600052602060002090601f01602090048101928262000107576000855562000153565b82601f106200012257805160ff191683800117855562000153565b8280016001018555821562000153579182015b828111156200015257825182559160200191906001019062000135565b5b50905062000162919062000166565b5090565b5b808211156200018157600081600090555060010162000167565b5090565b6000604051905090565b600080fd5b600080fd5b600080fd5b600080fd5b6000601f19601f8301169050919050565b7f4e487b7100000000000000000000000000000000000000000000000000000000600052604160045260246000fd5b620001ee82620001a3565b810181811067ffffffffffffffff8211171562000210576200020f620001b4565b5b80604052505050565b60006200022562000185565b9050620002338282620001e3565b919050565b600067ffffffffffffffff821115620002565762000255620001b4565b5b6200026182620001a3565b9050602081019050919050565b60005b838110156200028e57808201518184015260208101905062000271565b838111156200029e576000848401525b50505050565b6000620002bb620002b58462000238565b62000219565b905082815260208101848484011115620002da57620002d96200019e565b5b620002e78482856200026e565b509392505050565b600082601f83011262000307576200030662000199565b5b815162000319848260208601620002a4565b91505092915050565b6000819050919050565b620003378162000322565b81146200034357600080fd5b50565b60008151905062000357816200032c565b92915050565b600073ffffffffffffffffffffffffffffffffffffffff82169050919050565b60006200038a826200035d565b9050919050565b6200039c816200037d565b8114620003a857600080fd5b50565b600081519050620003bc8162000391565b92915050565b600080600080600060a08688031215620003e157620003e06200018f565b5b600086015167ffffffffffffffff81111562000402576200040162000194565b5b6200041088828901620002ef565b955050602086015167ffffffffffffffff81111562000434576200043362000194565b5b6200044288828901620002ef565b945050604086015167ffffffffffffffff81111562000466576200046562000194565b5b6200047488828901620002ef565b9350506060620004878882890162000346565b92505060806200049a88828901620003ab565b9150509295509295909350565b7f4e487b7100000000000000000000000000000000000000000000000000000000600052602260045260246000fd5b60006002820490506001821680620004ef57607f821691505b60208210811415620005065762000505620004a7565b5b50919050565b610760806200051c6000396000f3fe6080604052600436106100705760003560e01c80635c9500b81161004e5780635c9500b8146100d5578063750688c3146101005780639f1d05001461012b578063f3ccaac01461015657610070565b806345653a6d1461007557806346c922d1146100a057806357221dfb146100cb575b600080fd5b34801561008157600080fd5b5061008a610181565b60405161009791906104a8565b60405180910390f35b3480156100ac57600080fd5b506100b56101a7565b6040516100c2919061055c565b60405180910390f35b6100d3610235565b005b3480156100e157600080fd5b506100ea61033f565b6040516100f79190610597565b60405180910390f35b34801561010c57600080fd5b50610115610345565b6040516101229190610597565b60405180910390f35b34801561013757600080fd5b5061014061034b565b60405161014d919061055c565b60405180910390f35b34801561016257600080fd5b5061016b6103d9565b604051610178919061055c565b60405180910390f35b600560009054906101000a900473ffffffffffffffffffffffffffffffffffffffff1681565b600180546101b4906105e1565b80601f01602080910402602001604051908101604052809291908181526020018280546101e0906105e1565b801561022d5780601f106102025761010080835404028352916020019161022d565b820191906000526020600020905b81548152906001019060200180831161021057829003601f168201915b505050505081565b6004546003541161027b576040517f08c379a000000000000000000000000000000000000000000000000000000000815260040161027290610685565b60405180910390fd5b600560009054906101000a900473ffffffffffffffffffffffffffffffffffffffff1673ffffffffffffffffffffffffffffffffffffffff166108fc349081150290604051600060405180830381858888f193505050501580156102e3573d6000803e3d6000fd5b50346004546102f291906106d4565b60048190555042343373ffffffffffffffffffffffffffffffffffffffff167f8179d9597cd1c633e85980c56c3e9f1f5e8181e80ab30a22ac3e0671ac4da1f060405160405180910390a4565b60035481565b60045481565b60008054610358906105e1565b80601f0160208091040260200160405190810160405280929190818152602001828054610384906105e1565b80156103d15780601f106103a6576101008083540402835291602001916103d1565b820191906000526020600020905b8154815290600101906020018083116103b457829003601f168201915b505050505081565b600280546103e6906105e1565b80601f0160208091040260200160405190810160405280929190818152602001828054610412906105e1565b801561045f5780601f106104345761010080835404028352916020019161045f565b820191906000526020600020905b81548152906001019060200180831161044257829003601f168201915b505050505081565b600073ffffffffffffffffffffffffffffffffffffffff82169050919050565b600061049282610467565b9050919050565b6104a281610487565b82525050565b60006020820190506104bd6000830184610499565b92915050565b600081519050919050565b600082825260208201905092915050565b60005b838110156104fd5780820151818401526020810190506104e2565b8381111561050c576000848401525b50505050565b6000601f19601f8301169050919050565b600061052e826104c3565b61053881856104ce565b93506105488185602086016104df565b61055181610512565b840191505092915050565b600060208201905081810360008301526105768184610523565b905092915050565b6000819050919050565b6105918161057e565b82525050565b60006020820190506105ac6000830184610588565b92915050565b7f4e487b7100000000000000000000000000000000000000000000000000000000600052602260045260246000fd5b600060028204905060018216806105f957607f821691505b6020821081141561060d5761060c6105b2565b5b50919050565b7f746f74616c20726571756972656420616d6f756e742069732066756c6c66696c60008201527f6c6564207468616e6b796f750000000000000000000000000000000000000000602082015250565b600061066f602c836104ce565b915061067a82610613565b604082019050919050565b6000602082019050818103600083015261069e81610662565b9050919050565b7f4e487b7100000000000000000000000000000000000000000000000000000000600052601160045260246000fd5b60006106df8261057e565b91506106ea8361057e565b9250827fffffffffffffffffffffffffffffffffffffffffffffffffffffffffffffffff0382111561071f5761071e6106a5565b5b82820190509291505056fea26469706673582212203076fd42e57538dfd993e0c4a3b8070a1eb74a3505f36e653e1ec8ed4efe35e664736f6c634300080a0033",
  "linkReferences": {},
  "deployedLinkReferences": {}
}